:1000000033C0000042C000003FC000003DC00000FF
:100010003BC0000039C0000037C0000035C0000000
:1000200033C0000031C000002FC000002DC0000010
:100030002BC0000029C0000027C0000025C0000020
:1000400023C0000021C000001FC000001DC0000030
:100050001BC0000019C0000017C0000015C0000040
:1000600013C0000011C0000011241FBECFEFD8E064
:10007000DEBFCDBF21E0A0E0B1E001C01D92A13004
:10008000B207E1F71ED05BC0BBCF1F920F920FB635
:100090000F9211248F93809100018F5F8093000154
:1000A0008F910F900FBE0F901F901895E89AE9E678
:1000B000F0E0808181608083808182608083789499
:1000C00008955398219A229A239A249A259AEEDF2A
:1000D0004B9B0DC087E99AE30197F1F700C0000040
:1000E000C11104C010920001C1E001C0C0E08091C4
:1000F0000001803269F38091000180FF02C0299ADB
:1001000001C029988091000181FF02C02A9A01C094
:100110002A988091000182FF02C02B9A01C02B987F
:100120008091000183FF02C02C9A01C02C9880911D
:10013000000184FF02C02D9ACBCF2D98C9CFF8942F
:02014000FFCFEF
:00000001FF
